:1008D900080C09080C040602030102080000020AB8
:0208E90000000D
:0908FC00740C250BF8E6F5A022AE
:1008EC00758901758C3C758AB0D2A9D2AFD28C2295
:080905001208EC1208FC80FB53
:03000B0002088C5C
:10088C00C0E0C0D075D000C006C007758C3C758A1E
:10089C00B00509E5097002050864144508702505C2
:1008AC000BE50B7002050AD39407E50A9400400689
:1008BC007E007F008004AE0AAF0B8E0A8F0B75088A
:0D08CC0000750900D007D006D0D0D0E03272
:03000000020800F3
:0C080000787FE4F6D8FD758113020847EC
:10080C00020905E493A3F8E493A34003F68001F2F4
:10081C0008DFF48029E493A3F85407240CC8C333ED
:10082C00C4540F4420C8834004F456800146F6DFBC
:10083C00E4800B01020408102040809008D9E47E6B
:10084C00019360BCA3FF543F30E509541FFEE493B1
:10085C00A360010ECF54C025E060A840B8E493A378
:10086C00FAE493A3F8E493A3C8C582C8CAC583CAA3
:10087C00F0A3C8C582C8CAC583CADFE9DEE780BE5B
:0108EB00000C
:00000001FF
