:100A0700020800000B0A30313233343536373839B3
:100A1700000D1554656D70657261747572653A00E5
:070A46001209E67F647E0047
:100A4D00D3EF9400EE94004007EF1F70F31E80F07B
:010A5D002276
:1009BE00E4FDD2B37F08FE120A4DC2B37F507E0013
:1009CE00120A4DD2B37F0E7E00120A4DA2B3E4334B
:0809DE00FD7F147E00020A4DAA
:100A2800E4FC7D08C2B3ECC313FCD2B330B3034378
:0D0A380004807F047E00120A4DDDE9AF044A
:010A4500228E
:0209E600AD075B
:1009E8007B08C2B3ED1392B330B3047F0180027F5A
:0E09F800057E00120A4DD2B3EDC313FDDBE401
:010A060022CD
:10095800E4FBFFFDFC1209BE7FCC1209E67F4412BE
:100968000A461209BE7FCC1209E67FBE120A461259
:100978000A28AB07120A28EFFE7C00E42BFFEC3EA6
:0B098800C4F854F0C8EFC4540F48FF3F
:010993002241
:0A099400F8E6FF120A727F057E00EC
:10099E00E4FDFCC3ED9FEC9E5015E4FAFB0BBB008F
:0F09AE00010AEB64784A70F50DBD00010C80E47E
:0109BD002217
:100A7200D2B0C2B1C2B28F9012099AD2B2C2B2221D
:100A8200C2B0C2B1C2B28F9012099AD2B2C2B2221D
:100A5E007F38120A827F0C120A827F06120A827F68
:040A6E0001020A82F5
:10088C00E4F522F523F524AE08AF09FC7D641209CA
:10089C00038F22AE08AF097C007D641209037E0031
:1008AC007F0ACFCDCFCECCCE1209038F23AE08AFAB
:1008BC00097C007D0A120903A9057F80120A8212A5
:1008CC00099A74152524F8E6FF6007120997052488
:1008DC0080F07FC6120A82740A2522120994740AC7
:1008EC002523120994740A291209947F43120A725F
:0708FC007F057E0002099E4A
:100A9200120A5E1209587508008F0912088C80F339
:03000000020800F3
:0C080000787FE4F6D8FD758124020847DB
:10090300BC000BBE0029EF8DF084FFADF022E4CCD8
:10091300F875F008EF2FFFEE33FEEC33FCEE9DECA1
:10092300984005FCEE9DFE0FD5F0E9E4CEFD22EDE7
:10093300F8F5F0EE8420D21CFEADF075F008EF2F31
:10094300FFED33FD4007985006D5F0F222C398FD22
:050953000FD5F0EA22BF
:10080C00020A92E493A3F8E493A34003F68001F266
:10081C0008DFF48029E493A3F85407240CC8C333ED
:10082C00C4540F4420C8834004F456800146F6DFBC
:10083C00E4800B0102040810204080900A07E47E3B
:10084C00019360BCA3FF543F30E509541FFEE493B1
:10085C00A360010ECF54C025E060A840B8E493A378
:10086C00FAE493A3F8E493A3C8C582C8CAC583CAA3
:10087C00F0A3C8C582C8CAC583CADFE9DEE780BE5B
:010A270000CE
:00000001FF
