:1001F500E508B40114E4F508FB7A00790B1201B4A3
:0A0205007B007A00790B1201D92268
:0800030012020F1201F580FB4F
:09022700010A00011F0001210081
:10020F0053877F759850D2AC758920758DFA758D8F
:08021F00FAC2ABD2AFD28E226D
:03002300020026B2
:10002600C0E0C0D075D000C0002098030200BAC25C
:1000360098E52114601914602B146042240370742F
:1000460085990BE50BB4AA0575210180678010859B
:10005600990CE50CB45508752102751F028055757B
:1000660021008050740B251FF8A699051FE51FD3A4
:1000760094044005752103803B7521028036740B7C
:10008600251FF8A699740B251FF8E6B40D26E50D75
:1000960024FE6014047014850E09750900E50F2509
:1000A60009F5097511018003751102752100751F87
:1000B60000750801309902C299D000D0D0D0E03244
:06001C008F993099FD22CE
:1001B4008B228A238924AB22AA23A9241201526008
:1001C400130524E5247002052314F9120152FF12C9
:0501D400001C80E22286
:06023100AE0712001C22C2
:0601D9008B228A23892419
:1001DF00E4FFAB22AA23A9248F82758300E41201C6
:0501EF006B0FBF14EDD1
:0101F40022E8
:0E000E00758912758CFC758A66D2A9D28C2277
:03000B0002018D62
:10018D00C0E0C0D0C28CE50AB4010F0520E520D334
:10019D00940A4006752000750801758CFC758A66F9
:0701AD00D28CD0D0D0E0326B
:030000000200C635
:0C00C600787FE4F6D8FD75812402010D5E
:10015200BB010689828A83E0225002E722BBFE02AB
:09016200E32289828A83E49322DE
:10016B00F8BB010DE58229F582E5833AF583E8F0CA
:10017B00225006E92582C8F622BBFE05E92582C876
:02018B00F2225E
:1000D200020003E493A3F8E493A34003F68001F241
:1000E20008DFF48029E493A3F85407240CC8C3332F
:1000F200C4540F4420C8834004F456800146F6DFFE
:10010200E4800B0102040810204080900227E47E64
:10011200019360BCA3FF543F30E509541FFEE493F2
:10012200A360010ECF54C025E060A840B8E493A3B9
:10013200FAE493A3F8E493A3C8C582C8CAC583CAE4
:10014200F0A3C8C582C8CAC583CADFE9DEE780BE9C
:0102300000CD
:00000001FF
