:060935000408090305049B
:0808B700D2B0D2B17F057E0032
:1008BF00E4FDFCC3ED9FEE6480F8EC648098500873
:0808CF00000DBD00010C80EBDF
:0108D70022FE
:0B0911001208B7C2B01208BFC2B1222A
:0F090200D2B1C2B01208BBD2B01208BFC2B1222C
:0A091C00C2B01208B9C2B1D2B02275
:080926001208B7C2B1D2B022E1
:0308EE001208D815
:1008F1001208B9A2B0E433FBC2B11208BFEB24FF66
:0109010022D3
:0208D800AB076C
:1008DA00E4FAEB3392B01208B9C2B1EB25E0FB0A95
:0308EA00BA08EF5A
:0108ED0022E8
:01093C002298
:10088C001209117FA21208EE92007F101208EE924C
:10089C0000E4F9740829F8E6FF1208D81208F1925E
:0B08AC000020000409B904EB0209025F
:07092E0012088CE4FEFF2219
:03000000020800F3
:0C080000787FE4F6D8FD758120020847DF
:10080C0002092EE493A3F8E493A34003F68001F2CB
:10081C0008DFF48029E493A3F85407240CC8C333ED
:10082C00C4540F4420C8834004F456800146F6DFBC
:10083C00E4800B0102040810204080900935E47E0E
:10084C00019360BCA3FF543F30E509541FFEE493B1
:10085C00A360010ECF54C025E060A840B8E493A378
:10086C00FAE493A3F8E493A3C8C582C8CAC583CAA3
:10087C00F0A3C8C582C8CAC583CADFE9DEE780BE5B
:01093B0000BB
:00000001FF
