:1009570008210204060801FF0305044301020304FA
:1009670008330102031E04FF0608083B01080504BB
:10097700050101070A293F065B4F666D7D077F6FFB
:0609D900D2B17F057E0093
:1009DF00E4FDFCC3ED9FEE6480F8EC648098500852
:0809EF00000DBD00010C80EBBE
:0109F70022DD
:0D0A7C00D2B01209D9C2B01209DFC2B122F6
:100A4200C2B1C2B01209DBD2B11209DFD2B01209AF
:040A5200DFC2B0222D
:100A5600C2B01209DBD2B11209DFC2B11209DFD26C
:040A6600B00209DFF2
:100A6A00D2B01209DBD2B11209DFC2B11209DFC258
:020A7A00B022A8
:070A2C0029F8E6FF120A148D
:0E0A33001209D9A2B09201C2B11209DFA201CC
:010A41002292
:020A1400AB072E
:100A1600C2B1E4FAEB3392B01209D9C2B1EB25E0C8
:050A2600FB0ABA08EF15
:010A2B0022A8
:1009F800E4FBFAEB25E0FB1209D9A2B0E433420389
:0B0A0800C2B11209DF0ABA08EAAF030E
:010A130022C0
:10098800120A7C7FA2120A14120A33920220021D54
:100998007F30120A14120A339202200210E4F9740A
:1009A80021120A2C920220020409B908F2020A4212
:08091F008D828C83AB07AA0650
:10092700120A7CAF03120A14120A33920020001D28
:10093700AF82120A14120A339200200010E4F974ED
:100947003B120A2C920020000409B908F2020A425D
:1009B800E4FBFA74432BF8E62429F8E6F5A07F1047
:1009C8007E271209DF0BBB00010AEB64044A70E3BF
:0109D80022FC
:10088C00120A7C7FA0120A14120A33920020004133
:10089C00120A7C7FA0120A14120A339200E4120A84
:1008AC002F9200120A7C7FA1120A14120A339200B2
:1008BC00E4F91209F8744329F8A607B90305120ADA
:1008CC006A8003120A567F047E001209DF09B904FC
:0408DC00E1020A42E9
:1008E000E4FDFC7FA0FE12091F7F647E001209DF79
:1008F0007D507C007FA012091F7F647E001209DFFB
:100900007D807C007FA212091F7FE87E031209DF31
:0F09100012088C7F647E001209DF1209B880FB89
:03000000020800F3
:0C080000787FE4F6D8FD758146020847B9
:10080C000208E0E493A3F8E493A34003F68001F21A
:10081C0008DFF48029E493A3F85407240CC8C333ED
:10082C00C4540F4420C8834004F456800146F6DFBC
:10083C00E4800B0102040810204080900957E47EEC
:10084C00019360BCA3FF543F30E509541FFEE493B1
:10085C00A360010ECF54C025E060A840B8E493A378
:10086C00FAE493A3F8E493A3C8C582C8CAC583CAA3
:10087C00F0A3C8C582C8CAC583CADFE9DEE780BE5B
:01098700006F
:00000001FF
