:100A320008210204060801FF03050443010203041E
:100A420008330102031E04FF0608083B01080504DF
:100A5200050101070A293F065B4F666D7D077F6F1F
:060AA600D2B17F057E00C5
:100AAC00E4FDFCC3ED9FEE6480F8EC648098500884
:080ABC00000DBD00010C80EBF0
:010AC400220F
:0D0B4A00D2B0120AA6C2B0120AACC2B1228B
:100B1000C2B1C2B0120AA8D2B1120AACD2B0120A43
:040B2000ACC2B02291
:100B2400C2B0120AA8D2B1120AACC2B1120AACD233
:040B3400B0020AAC55
:100B3800D2B0120AA8D2B1120AACC2B1120AACC21F
:020B4800B022D9
:080AF900120B4A7FA0120AE172
:0E0B0100120AA6A2B09201C2B1120AACA20161
:010B0F0022C3
:020AE100AB0761
:100AE300C2B1E4FAEB3392B0120AA6C2B1EB25E02D
:050AF300FB0ABA08EF48
:010AF80022DB
:100AC500E4FBFAEB25E0FB120AA6A2B0E4334203ED
:0B0AD500C2B1120AAC0ABA08EAAF0373
:010AE00022F3
:1009FB00120B4A7FA2120AE1120B0192022002246F
:100A0B007F30120AE1120B019202200217E4F974F3
:100A1B002129F8E6FF120AE1120B019202200204CF
:070A2B0009B908EB020B10F2
:080917008D828C83AB07AA0658
:10091F00120B4AAF03120AE1120B019200200034AE
:10092F00AF82120AE1120B019200200027E4F50CAE
:10093F001209668E0D8F0E7C007D0A12088CAF0592
:0B094F00120AE1120B019200200009C7
:0C095A00050CE50CC3940840DC020B10F7
:100A8500E4FBFA74432BF8E62429F8E6F5A07F1079
:100A95007E27120AAC0BBB00010AEB64044A70E323
:010AA500222E
:1009B300120AF9920320033D120AF99203E4FF128B
:1009C3000AE1120B019203120B4A7FA1120AE112F0
:1009D3000B019203E4F9120AC5744329F8A607B977
:1009E3000305120B388003120B247F047E00120AC6
:0809F300AC09B904E1020B108C
:100A63007D507C007FA07E001209177F647E0012F8
:100A73000AAC7D807C007FA21209177F647E00028E
:020A83000AACBB
:03000000020800F3
:0C080000787FE4F6D8FD758146020847B9
:10088C00C2D5EC30E709B2D5E4C39DFDE49CFCEE87
:10089C0030E715B2D5E4C39FFFE49EFE1208C2C335
:1008AC00E49DFDE49CFC80031208C230D507C3E430
:0608BC009FFFE49EFE22F6
:10096600AC08AD09AE0AAF0B7810EC4D4E4F7004D3
:100976007CA57DA5C3EC13FCED13FDEE13FEEF1372
:10098600FF5010EC64CCFCED644CFDEE644EFEEFC3
:1009960064CEFFD8DF8C088D098E0A8F0BEE547F4C
:0D09A600FE228E088F0974A5F50AF50B22BC
:10080C00020A63E493A3F8E493A34003F68001F295
:10081C0008DFF48029E493A3F85407240CC8C333ED
:10082C00C4540F4420C8834004F456800146F6DFBC
:10083C00E4800B0102040810204080900A32E47E10
:10084C00019360BCA3FF543F30E509541FFEE493B1
:10085C00A360010ECF54C025E060A840B8E493A378
:10086C00FAE493A3F8E493A3C8C582C8CAC583CAA3
:10087C00F0A3C8C582C8CAC583CADFE9DEE780BE5B
:010A62000093
:1008C200BC000BBE0029EF8DF084FFADF022E4CC1A
:1008D200F875F008EF2FFFEE33FEEC33FCEE9DECE3
:1008E200984005FCEE9DFE0FD5F0E9E4CEFD22ED29
:1008F200F8F5F0EE8420D21CFEADF075F008EF2F73
:10090200FFED33FD4007985006D5F0F222C398FD63
:050912000FD5F0EA2200
:00000001FF
