:1008A400140C003F0006005B004F0066006D007DE5
:0608B4000007007F006F49
:1008BB00758906758CFB758AFBD2A9D2AFD28C22B7
:10088C00E50925E0240CF808E6F5A0E509640A451D
:08089C00087004F508F50922BB
:0808D8001208BB12088C80FB22
:03000B000208CB1D
:0D08CB00C0E00509E50970020508D0E03223
:03000000020800F3
:0C080000787FE4F6D8FD75811F020847E0
:10080C000208D8E493A3F8E493A34003F68001F222
:10081C0008DFF48029E493A3F85407240CC8C333ED
:10082C00C4540F4420C8834004F456800146F6DFBC
:10083C00E4800B01020408102040809008A4E47EA0
:10084C00019360BCA3FF543F30E509541FFEE493B1
:10085C00A360010ECF54C025E060A840B8E493A378
:10086C00FAE493A3F8E493A3C8C582C8CAC583CAA3
:10087C00F0A3C8C582C8CAC583CADFE9DEE780BE5B
:0108BA00003D
:00000001FF
