:1009B900021300000B0830313233343536373839F9
:1009C900000915564F4C544147453A00011E000194
:0909D9001F0001220002200000B1
:0A098F00F8E6FF120A237F057E0040
:10099900E4FDFCC3ED9FEC9E5015E4FAFB0BBB0094
:0F09A900010AEB64784A70F50DBD00010C80E483
:0109B800221C
:100A1300C2B3C2B4C2B58F90120995D2B5C2B52282
:100A2300D2B3C2B4C2B58F90120995D2B5C2B52262
:1009FF007F38120A137F0C120A137F06120A137F15
:040A0F0001020A13C3
:10080000AE13AF147C007D641209287D3312093ABF
:100810008E138F147C007D6412093A8F1EAE13AFC5
:10082000147C007D6412093A7E007F0ACFCDCFCEC2
:10083000CCCE12093A8F1FAE13AF147C007D0A1282
:10084000093A8D227F80120A13E4F520F5217415F0
:10085000252112098F0521E52170020520C3940886
:10086000E5206480948040E67FC2120A1312099545
:100870007F4B120A237408251E12098F1209997FD3
:100880002E1209927408251F12098F7408251EF86C
:0C089000E6FF120A237F057E0002099992
:1009E300C2B0D2B07FE87E03120999C2B030B1FD24
:0C09F300D2B2AFA07513008F14C2B22264
:0B0A33001209FF1209E312080080F80E
:0300000002089C57
:0C089C00787FE4F6D8FD7581220208E3A5
:10092800EF8DF0A4A8F0CF8CF0A428CE8DF0A42EE3
:02093800FE229D
:10093A00BC000BBE0029EF8DF084FFADF022E4CCA1
:10094A00F875F008EF2FFFEE33FEEC33FCEE9DEC6A
:10095A00984005FCEE9DFE0FD5F0E9E4CEFD22EDB0
:10096A00F8F5F0EE8420D21CFEADF075F008EF2FFA
:10097A00FFED33FD4007985006D5F0F222C398FDEB
:05098A000FD5F0EA2288
:1008A800020A33E493A3F8E493A34003F68001F229
:1008B80008DFF48029E493A3F85407240CC8C33351
:1008C800C4540F4420C8834004F456800146F6DF20
:1008D800E4800B01020408102040809009B9E47EEE
:1008E800019360BCA3FF543F30E509541FFEE49315
:1008F800A360010ECF54C025E060A840B8E493A3DC
:10090800FAE493A3F8E493A3C8C582C8CAC583CA06
:10091800F0A3C8C582C8CAC583CADFE9DEE780BEBE
:0109E2000014
:00000001FF
