:100B810053877F759850D2AC758920758DFA758D14
:080B9100FAC2ABD2AFD28E22F2
:03002300020B18B5
:100B1800C0E0C0F0C083C082C0D075D000C000C0A3
:100B280001C002C003C004C005C006C0073099094F
:100B38007F327E00120003C299D007D006D005D0BC
:100B480004D003D002D001D000D0D0D082D083D03E
:040B5800F0D0E032C7
:060BA7008F993099FD2238
:100B5C008B228A238924AB22AA23A9241204B060F5
:100B6C00130524E5247002052314F91204B0FF12B6
:050B7C000BA780E2223E
:060BAD00AE07120BA722A7
:100AAA0068656C6C6F7720776F726C64310D0A0021
:100ABA0068656C6C6F7720776F726C6420707269EE
:100ACA006E74660D0A006E756D3136203D20256400
:100ADA000D0A006E756D203D202562640D0A006CBA
:100AEA006F6E674E756D203D2025750D0A00666C88
:100AFA006F61744E756D203D2025660D0A00666C87
:0E0B0A006F61744E756D203D2025670D0A0049
:0D0B9900010C58020D3E1004083FF1A9FCAC
:100A3900120B817FE87E031200037BFF7A0A79AAF1
:100A4900120B5C7BFF7A0A79BA1205A07BFF7A0A3E
:100A590079D0850C251205A07BFF7A0A79DD850CF2
:100A6900251205A07BFF7A0A79E9850D25850E26D1
:100A79001205A07BFF7A0A79F8850B28850A278554
:100A890009268508251205A07BFF7A0B7908850BB5
:100A990028850A278509268508251205A0E4FEFF71
:010AA900222A
:10000300D3EF9400EE940040147D7C7C00ED1D70D2
:0D001300011CED4C70F7EF1F70E61E80E33E
:0100200022BD
:10053E00E5392425F8E60539227822300702782598
:10054E00E475F0011205080204B02000EB7F2ED2F4
:10055E00008018EF540F2490D43440D4FF30040B95
:10056E00EF24BFB41A0050032461FFE53A60021570
:10057E003A053DE53D7002053C30070D7822E475E5
:10058E00F001120508EF0204F6020BAD7403D20758
:10059E008003E4C207F5398B228A238924E4F53AD5
:1005AE00F53CF53DE53A60077F2012057980F5753B
:1005BE003BFFC201C200C202C203C205C206C2088C
:1005CE00120547FF700D3007057F0012058AAF3DFB
:1005DE00AE3C22B4255FC2D5C204120547FF24D01B
:1005EE00B40A00501A75F00A783A30D50508B6FFED
:1005FE000106C6A426F620D5047002D20380D924A3
:10060E00CFB41A00EF5004C2E5D204020877D2012B
:10061E0080C6D20080C0D20280BCD2D580BAD205AC
:10062E0080B47F201205792002077401B53A00408C
:10063E00F112053EFF1205790205B2D208D20680EC
:10064E009512053EFB12053EFA12053EF94A4B7015
:10065E0006796E7A097BFF20022EE53A602A7E002B
:10066E008E827583001204C960060EEE653B70F033
:10067E00C2D5EBC0E0EAC0E0E9C0E0EE1208D7D088
:10068E00E0F9D0E0FAD0E0FB1204B0FF60AAEBC0B4
:10069E00E0EAC0E0E9C0E0120579D0E02401F9D02B
:1006AE00E03400FAD0E0FBE53B0460DCD53BD980BA
:1006BE0087D20280A21208BA60F7E53B70010412DD
:1006CE000026A93B600DE53B600914F53B1209615C
:1006DE00EF60F3EA30E702F404C3995077EAF425A9
:1006EE003B0430E701E404F53B800D1208BA60C10B
:1006FE00EA053B253B120026EA7838F630E701E49E
:10070E00253B04D53B04200501141208D7E4C0E0B4
:10071E001209617838E6601320E70714F6120561B6
:10072E00802204F6D0E014C0E07F00120561E53BA4
:10073E006007120558153B800B300503120558D083
:10074E00E00205B2D0E00480C51208BA60A0E53B15
:10075E00041200267838EAF6E53B20050260010413
:05076E0024041208D76D
:1007730074FF04C0E0120961120561E53B20050224
:100783006003120558D0E0B53BE87F4512056B784E
:1007930038E67F2B30E7047F2DF404C0E01205799F
:1007A300D0E075F00A84C0F0120562D0E012056251
:1007B3000205B2791080027908C206C2088008D205
:1007C300D5790A8004790AC2D5E53B047002F53B6A
:1007D300E4FAFDFEFF12053EFC7B0820011312051F
:1007E3003EFD7B1030000A12053EFE12053EFF7BE4
:1007F30020EC3382D592D55013C3E43000069FFF1B
:10080300E49EFEE42001039DFDE49CFCE4CBF8C2DE
:1008130001EC700CCFCECDCCE824F8F870F3801740
:10082300C3EF33FFEE33FEED33FDEC33FCEB33FB71
:10083300994002FB0FD8E9EB300105F8D0E0C4483A
:10084300B201C0E00AEC4D4E4F78207B0070C2EA43
:10085300B53B0040BCC0E01208D9D0F0D0E0200185
:1008630004C4C0E0C4B201C0F0120562D0F0D5F0F8
:10087300EB0205B2120518064F5307B65806204C73
:10088300061C4207BA4F07C24407C249063543074D
:10089300C85506F94607574506C347098E5006242F
:1008A3002D06282E064B2B062C2306492009772AD2
:1008B30005E44800000643E53BB4FF03753B06121D
:1008C300053EFC12053EFD12053EFE12053EFF7875
:1008D30031020055790AA2D5200314300509B91055
:1008E300020404B9080104A2D52006025001042021
:1008F30002689202B53A005034C0E07F20300319F9
:100903007F30A20272067205500F120930C202C272
:1009130006C205C2087F30800F300503E9C0E0122C
:100923000579300503D0E0F9D0E0B53ACC300517AE
:100933007F30B9100C1205797F583004077F788017
:1009430003B908031205793002057F2D0205797F6B
:10095300202008F87F2B2006F322920280CF7F000D
:10096300B4070050052431F8E6FF22286E756C6C3D
:100973002900D20112053E3001F8C201783A30D580
:100983000108F60205E42D5043495812053E24039D
:10099300B405004001E49009899312056A743A1280
:0A09A300056AD203753A040207B694
:10002600F920E72824F950037907E4F42402FB18A1
:10003600DBFDE624FB5014E9600DE4F618E604F651
:0F004600B40A08E4F6D9F57401F60A22C2D522ED
:10005500ED33EC3392D5FA602AB4FF33EDC2E77B7A
:10006500FF60067A00797AE4227A00798320D50444
:100075007A00797E224E614E002B494E46002D496D
:100085004E4600E47A08F608DAFC7B00740722E89D
:10009500C0E0ECC0E0EDC0E0EEC0E0EFC0E0EA7526
:1000A500F010A4CAABF075F04DA42BFBE435F0FCC1
:1000B500EA2410FAEB34C5FBEC34D9FCEDC2E7FFBA
:1000C50075F056A4F42411C5F0F434C58FF0A42AB4
:1000D500E5F03BE43CF620E714120426D0E0FFD01F
:1000E500E0FED0E0FDD0E0FC1203598014F40412C8
:1000F5000426D0E0FFD0E0FED0E0FDD0E0FC120207
:1001050050D0E0F8E6FAEDD2E7CD33EC332482FBAC
:10011500E4C3CF33CFCE33CECD33CD33DBF37B0743
:1001250075F00A846004F6081B0AE5F0F6088FF0FE
:10013500740AA4FFACF08EF0740AA42CFEACF05047
:10014500010C8DF0740AA42CFDE435F0F608DBDE15
:030155007407220A
:1001580002049BE86480F8E933E83360110460F036
:10016800ED33EC337009E8FCE9FDEAFEEBFF22040D
:1001780060DED3EB9FEA9EE99DE8C2E78CF0C2F708
:1001880095F0400CE8CCF8E9CDF9EACEFAEBCFFBD4
:1001980012046685D0F05804700320D5B3E80470C3
:1001A800075002B2D50204A592D5EC0460F7E4CC5E
:1001B800C0E0C398F8603B94186008400DD0E0FB9D
:1001C80002047DE4FBFAC9FC8028E830E406E4C9AF
:1001D800FBE4CAFCE830E305E4C9CACBFCE85407F1
:1001E8006010F8C3E913F9EA13FAEB13FBEC13FCFC
:1001F800D8F130F52FC3E49CFCEF9BFFEE9AFEED9F
:1002080099FDD0E0FBEF4E4D4C701222DB03020447
:10021800A2EC2CFCEF33FFEE33FEED33FDED30E7BF
:10022800EB02047DEF2BFFEE3AFEED39FDD0E0FB4B
:1002380050130BBB00030204A5ED13FDEE13FEEFF4
:0802480013FFEC13FC02047D1E
:10025000EC4D6011E8497017ED33EC3304600DE4A8
:10026000FCFFFEFD22E933E8330470F802049B1220
:10027000046658046009E4CC248150062850090221
:1002800004A52840030204A2C0E0EB4A7044B980F0
:1002900006D0E0FB020491EF4E701CBD8008EBFF1E
:1002A000EAFEE9FD80EBE98DF0A4FEE5F0020339FA
:1002B000E9CDF9EAFEEBFFEF89F0A4FCE5F0CE8989
:1002C000F0A42EFFE435F0CD89F0A42DFEE435F046
:1002D0008067EF4E7005BD80D780C3EF8BF0A4AC74
:1002E000F0EE8BF0A42CFCE435F0F8EF8AF0A42CAF
:1002F000E5F038FCE433CB8DF0A42CFCE5F03BF8C2
:10030000EE8AF0A42CFCE5F038F8E433CF89F0A4B1
:100310002CFCE5F038CF3400CE89F0A42FFFE5F0B7
:100320003EFEE433C98DF0A42EFEE5F039CD8AF00F
:10033000A42FFFE5F03EFEE43DFD33D0E0FB500787
:100340000BBB000F0204A5EC2CFCEF33FFEE33FED9
:06035000ED33FD02047D07
:100356000204A5EC5D046005E85904700302049BE1
:10036600120466580460F6EC4860F2EC7004FDFE78
:10037600FF22C860DB2481C85009C398600250067A
:100386000204A29850CAF582E9294B4A7005AB824D
:1003960002049175F0007C1A7880C3EF9BEE9AED0B
:1003A60099400DC3EF9BFFEE9AFEED99FDE842F0F2
:1003B600DC23ACF0D0E0FFD0E0FED0E0FDAB822045
:1003C600E7101BEB60BAEC2CFCEF33FFEE33FEEDCF
:1003D60033FD02047DE803F830E705C0F075F00050
:1003E600EF2FFFEE33FEED33FD40B830E7C280AAB3
:1003F6003F8000004120000042C80000447A00000F
:10040600461C400047C35000497424004B18968090
:100416004CBEBC205A0E1BCA6753C21C749DC5AE87
:10042600FB60065407601C2323120454EB54386007
:100436000912044012044F120250ECF8EDF9EEFADC
:10044600EFCB22EB12044F80F1543803241C9003A7
:10045600F6FE93FC0EEE93FD0EEE930ECE93FF2268
:10046600E9D2E7C933E833F892D5EDD2E7CD33ECDC
:0704760033FC5002B2D52255
:10047D00EC30E7100FBF000C0EBE00080DBD0004E0
:10048D000BEB6014A2D5EB13FCED92E7FD2274FF8C
:10049D00FCFDFEFF22E480F8A2D574FF13FC7D80E5
:0304AD00E480EFF9
:030000000209AD45
:0C09AD00787FE4F6D8FD75813D0209F466
:1004B000BB010689828A83E0225002E722BBFE024A
:0904C000E32289828A83E493227D
:1004C900BB010CE58229F582E5833AF583E02250E8
:1004D90006E92582F8E622BBFE06E92582F8E22232
:0D04E900E58229F582E5833AF583E493224C
:1004F600BB010689828A83F0225002F722BBFE01E5
:02050600F322DE
:10050800FAE6FB0808E6F925F0F618E6CA3AF622F4
:10051800D083D082F8E4937012740193700DA3A372
:1005280093F8740193F5828883E473740293686086
:06053800EFA3A3A380DF86
:1009B900020A39E493A3F8E493A34003F68001F211
:1009C90008DFF48029E493A3F85407240CC8C3333F
:1009D900C4540F4420C8834004F456800146F6DF0E
:1009E900E4800B0102040810204080900B99E47EFA
:1009F900019360BCA3FF543F30E509541FFEE49303
:100A0900A360010ECF54C025E060A840B8E493A3C9
:100A1900FAE493A3F8E493A3C8C582C8CAC583CAF4
:100A2900F0A3C8C582C8CAC583CADFE9DEE780BEAC
:010BA600004E
:00000001FF
