:10006F0053877F759850D2AC758920758DFA758D31
:08007F00FAC2ABD2AFD28E220F
:03002300020026B2
:10002600C0E0C0F0C083C082C0D075D000C000C0A0
:1000360001C002C003C004C005C006C00730990E47
:100046007FD07E07120003C2997F871200A6D007D1
:10005600D006D005D004D003D002D001D000D0D035
:09006600D082D083D0F0D0E0324A
:0300A6008F99220D
:1000870012006F7FE87E031200037F881200A6E448
:03009700FEFF2247
:10000300D3EF9400EE940040147D7C7C00ED1D70D2
:0D001300011CED4C70F7EF1F70E61E80E33E
:0100200022BD
:0300000002009A61
:0C009A00787FE4F6D8FD7581070200872E
:00000001FF
