:10080000808386898D909396999C9FA2A5A8ABAE74
:10081000B1B4B7BABCBFC2C5C7CACCCFD1D4D6D881
:10082000DADDDFE1E3E5E7E9EAECEEEFF1F2F4F53A
:10083000F6F7F8F9FAFBFCFDFDFEFFFFFFFFFFFFF7
:10084000FFFFFFFFFFFFFEFDFDFCFBFAF9F8F7F6E7
:10085000F5F4F2F1EFEEECEAE9E7E5E3E1DEDDDA0B
:10086000D8D6D4D1CFCCCAC7C5C2BFBCBAB7B4B131
:10087000AEABA8A5A29F9C999693908D8986838004
:10088000807C7976726F6C696663605D5A575551EA
:100890004E4C484543403D3A383533302E2B2927BE
:1008A0002522201E1C1A1816151311100E0D0B0AE6
:1008B0000908070605040302020100000000000009
:1008C00000000000000001020203040506070809F9
:1008D0000A0B0D0E1011131516181A1C1E202225B6
:1008E00027292B2E303335383A3D404345484C4E6E
:1008F0005155575A5D606366696C6F7276797C807A
:10093400E4FDFCC3ED9FEC9E5015E4FAFB0BBB00F9
:0F094400010ABA04F8BBB0F50DBD00010C80E448
:010953002281
:10097300E4F5A07F32FE12093475A0FF7F1402094B
:01098300343F
:10095400E4FFFE8FA00FBF00010EEFF44E70F47E93
:0E096400007FFF8FA0EF1F70011EEF4E70F599
:010972002262
:10090000E4F508F509F508F50974002509F5827480
:10091000083508F583E493F5A07F017E00120934C1
:100920000509E50970020508C394FFE50864809491
:030930008040D62E
:0109330022A1
:0509900012090080FBCC
:030000000209846E
:0C098400787FE4F6D8FD75810902099027
:00000001FF
