:100ABA00061D444154453A00062354494D453A001F
:100ACA000A08323000002D00002D00000A13000031
:0B0ADA003A00003A000000000112305A
:0A0AE600C2B1C2B28FA07F057E00EE
:100AF000E4FDFCC3ED9FEC9E5015E4FAFB0BBB003C
:0F0B0000010AEB64784A70F50DBD00010C80E42A
:010B0F0022C3
:100B65007E08EF1392B5D2B4C2B4EFC313FFDEF221
:010B7500225D
:100B1000E4FF7E08EFC313FF30B503430780D2B470
:060B2000C2B40EEE70EEFF
:010B260022AC
:100B2700C2B3C2B40000D2B30000120B65AF051206
:070B37000B65D2B4C2B3222A
:100B5200E4FEC2B3C2B4D2B3120B65120B10D2B40C
:020B6200C2B31C
:010B6400226E
:0A0B8600C2B0120AE6D2B2C2B222D7
:060B7600AF822FF8E6FF3C
:0A0B7C00D2B0120AE6D2B2C2B222D1
:10080000E4FBFA7F8D120B52AB077C007D107E005B
:100810001209E8EF2430F50A7C007D10AF037E005A
:100820001209E8ED2430F50B7F8B120B52AB07EF6A
:100830002430F5127F89120B52AB077C007D107EAD
:10084000001209E8EF2430F50D7C007D10AF037E27
:10085000001209E8ED2430F50E7F87120B52AB072A
:100860007C007D107E001209E8EF2430F51B7C002F
:100870007D10AF037E001209E8ED2430F51C7F8562
:10088000120B52AB0753037F7C007D10AF037E0039
:100890001209E8EF2430F5137C007D10AF037E00D1
:1008A0001209E8ED2430F5147F83120B52AB077C5C
:1008B000007D107E001209E8EF2430F5167C007DE3
:1008C00010AF037E001209E8ED2430F5177F811286
:1008D0000B52AB0753037F7C007D10AF037E0012E9
:1008E00009E8EF2430F5197E00AF037C007D10127B
:1008F00009E8ED2430F51A7F80120B86E4F583F5C4
:1009000082741D120B76A3E5826405458370F27F25
:10091000C0120B86E4F583F5827423120B76A3E5EF
:10092000826405458370F27F86120B86E4F583F5B9
:1009300082AF827408120B78A3E582640A45837043
:10094000F07FC6120B86E4F583F582AF8274131232
:0B0950000B78A3E5826408458370F07B
:01095B002279
:100B3E007F38120B867F0C120B867F06120B867F78
:040B4E0001020B860F
:100A7300120B3EE4FD7F8E120B277D207F8C120B21
:100A8300277D017F8A120B277D127F88120B277D1A
:100A9300277F86120B277D227F84120B277D357FCC
:100AA30082120B277D447F80120B277D807F8E125D
:070AB3000B2712080080FB75
:0300000002095C96
:0C095C00787FE4F6D8FD7581280209A31D
:1009E800C2D5EC30E709B2D5E4C39DFDE49CFCEE2A
:1009F80030E715B2D5E4C39FFFE49EFE120A1EC37A
:100A0800E49DFDE49CFC8003120A1E30D507C3E474
:060A18009FFFE49EFE2298
:10096800020A73E493A3F8E493A34003F68001F228
:1009780008DFF48029E493A3F85407240CC8C33390
:10098800C4540F4420C8834004F456800146F6DF5F
:10099800E4800B0102040810204080900ABAE47E2B
:1009A800019360BCA3FF543F30E509541FFEE49354
:1009B800A360010ECF54C025E060A840B8E493A31B
:1009C800FAE493A3F8E493A3C8C582C8CAC583CA46
:1009D800F0A3C8C582C8CAC583CADFE9DEE780BEFE
:010AE5000010
:100A1E00BC000BBE0029EF8DF084FFADF022E4CCBC
:100A2E00F875F008EF2FFFEE33FEEC33FCEE9DEC85
:100A3E00984005FCEE9DFE0FD5F0E9E4CEFD22EDCB
:100A4E00F8F5F0EE8420D21CFEADF075F008EF2F15
:100A5E00FFED33FD4007985006D5F0F222C398FD06
:050A6E000FD5F0EA22A3
:00000001FF
