:0C08C9000A083F065B4F666D7D077F6FDD
:10088C00E4FDFCC3ED9FEC9E5015E4FAFB0BBB00A2
:0F089C00010ABA04F8BBB0F50DBD00010C80E4F1
:0108AB00222A
:1008AC00900000AF8274082FF8E6F5A07F647E00FC
:0C08BC0012088CA3E582640A458370E7F3
:0108C800220D
:0508D6001208AC80FBDC
:03000000020800F3
:0C080000787FE4F6D8FD758111020847EE
:10080C000208D6E493A3F8E493A34003F68001F224
:10081C0008DFF48029E493A3F85407240CC8C333ED
:10082C00C4540F4420C8834004F456800146F6DFBC
:10083C00E4800B01020408102040809008C9E47E7B
:10084C00019360BCA3FF543F30E509541FFEE493B1
:10085C00A360010ECF54C025E060A840B8E493A378
:10086C00FAE493A3F8E493A3C8C582C8CAC583CAA3
:10087C00F0A3C8C582C8CAC583CADFE9DEE780BE5B
:0108D5000022
:00000001FF
