:1008FA000C0868656C6C6F20776F726C6400021468
:02090A000000EB
:0708BF0012091D7F057E00F8
:1008C600E4FDFCC3ED9FEC9E5015E4FAFB0BBB0068
:0F08D600010AEB64784A70F50DBD00010C80E457
:0108E50022F0
:10090D00C2B0C2B1C2B28FA01208C2D2B2C2B2225C
:10091D00D2B0C2B1C2B28FA01208C2D2B2C2B2223C
:1008E6007F3812090D7F0C12090D7F0612090D7F44
:0408F6000102090DE5
:10088C007F8012090D1208C27F4B1208BF7F6912BC
:10089C0008BF7F311208BF7FC212090D74082515DD
:1008AC00F8E6FF600D1208BF0515E51570EE05148E
:0308BC0080EA22AD
:08092D001208E612088C80FBA1
:03000000020800F3
:0C080000787FE4F6D8FD758115020847EA
:10080C0002092DE493A3F8E493A34003F68001F2CC
:10081C0008DFF48029E493A3F85407240CC8C333ED
:10082C00C4540F4420C8834004F456800146F6DFBC
:10083C00E4800B01020408102040809008FAE47E4A
:10084C00019360BCA3FF543F30E509541FFEE493B1
:10085C00A360010ECF54C025E060A840B8E493A378
:10086C00FAE493A3F8E493A3C8C582C8CAC583CAA3
:10087C00F0A3C8C582C8CAC583CADFE9DEE780BE5B
:01090C0000EA
:00000001FF
