:03000000020026D5
:0C002600787FE4F6D8FD75810802006DBB
:03011A00010805D4
:0A0110001200FBE5082430F59922E7
:1000FB00759850758920758DFA758BFAC2ABD28EB7
:05010B00D2AFD2AC22CE
:030023000200B226
:1000B200C0E0C0F0C083C082C0D075D000C000C014
:1000C20001C002C003C004C005C006C00730990EBB
:1000D2007FD07E07120003C2997F8812011ED007CB
:1000E200D006D005D004D003D002D001D000D0D0A9
:0900F200D082D083D0F0D0E032BE
:03011E008F992294
:10000300D3EF9400EE940040147D7C7C00ED1D70D2
:0D001300011CED4C70F7EF1F70E61E80E33E
:0100200022BD
:10003200020110E493A3F8E493A34003F68001F2D3
:1000420008DFF48029E493A3F85407240CC8C333CF
:10005200C4540F4420C8834004F456800146F6DF9E
:10006200E4800B010204081020408090011AE47E13
:10007200019360BCA3FF543F30E509541FFEE49393
:10008200A360010ECF54C025E060A840B8E493A35A
:10009200FAE493A3F8E493A3C8C582C8CAC583CA85
:1000A200F0A3C8C582C8CAC583CADFE9DEE780BE3D
:01011D0000E1
:00000001FF
