:100A0500011300021600170218003B021400320BF6
:0C0A1500083031323334353637383900C0
:1009CF00F8E6FF120A467F057E001209E57F3A120C
:0609DF000A467F057E00C0
:1009E500E4FDFCC3ED9FEC9E5015E4FAFB0BBB0048
:0F09F500010AEB64784A70F50DBD00010C80E437
:010A040022CF
:100A3600C2B0C2B1C2B28FA01209E1D2B2C2B22212
:100A4600D2B0C2B1C2B28FA01209E1D2B2C2B222F2
:100A22007F38120A367F0C120A367F06120A367F88
:040A320001020A367D
:10080000E4F51AF51BF51CF51DF51EAE16AF17FC29
:100810007D0A12097A8F1AAE16AF177C007D0A1274
:10082000097A8D1BAE18AF197C007D0A12097A8FE8
:100830001CAE18AF197C007D0A12097A8D1DAE140A
:10084000AF157C007D0A12097A8F1EAE14AF157C9D
:10085000007D0A12097AA9057F80120A361209E181
:100860007408251AF8E6FF1209DE7408251B120920
:10087000CF7408251CF8E6FF1209DE7408251D1246
:1008800009CF7408251EF8E6FF1209DE740829F85E
:05089000E6FF020A462C
:100A5600758901758C3C758AB0D2A9D2AFD28C2229
:0B0A6600120A22120A5612080080FB40
:03000B00020921C6
:10092100C0E0C0D0758C3C758AB00513E513B414D2
:100931000B0515E51570020514751300E515643CEA
:100941004514700E0519E519700205187514007526
:100951001500E519643C4518700E0517E51770027E
:100961000516751800751900E51764184516700409
:09097100F516F517D0D0D0E032E4
:030000000208955E
:0C089500787FE4F6D8FD75811E0208DCB7
:10097A00BC000BBE0029EF8DF084FFADF022E4CC61
:10098A00F875F008EF2FFFEE33FEEC33FCEE9DEC2A
:10099A00984005FCEE9DFE0FD5F0E9E4CEFD22ED70
:1009AA00F8F5F0EE8420D21CFEADF075F008EF2FBA
:1009BA00FFED33FD4007985006D5F0F222C398FDAB
:0509CA000FD5F0EA2248
:1008A100020A66E493A3F8E493A34003F68001F2FD
:1008B10008DFF48029E493A3F85407240CC8C33358
:1008C100C4540F4420C8834004F456800146F6DF27
:1008D100E4800B0102040810204080900A05E47EA8
:1008E100019360BCA3FF543F30E509541FFEE4931C
:1008F100A360010ECF54C025E060A840B8E493A3E3
:10090100FAE493A3F8E493A3C8C582C8CAC583CA0D
:10091100F0A3C8C582C8CAC583CADFE9DEE780BEC5
:010A210000D4
:00000001FF
