:10011A001201597DAA7F5512008F7FE87E031201D2
:10012A003B7D557FAA12008F7FE87E0312013B8038
:01013A00E2E2
:10013B00D3EF9400EE940040147D7C7C00ED1D7099
:0D014B00011CED4C70F7EF1F70E61E80E305
:010158002284
:040164000208000885
:0B015900D295C292C294C293C29522BC
:1000E400C292C294E4FEEEC39509E5086480F874F4
:1000F40080985017EFC394804004D2938002C29337
:10010400C292D292EF25E0FF0E80DBC294D294C259
:0501140092C294C293A9
:0101190022C3
:10008F00E4FEEEC39509E5086480F8748098501774
:10009F00EFC394804004D2938002C293C292D29253
:1000AF00EF25E0FF0E80DBAF05E4FEEEC39509E51B
:1000BF00086480F87480985017EFC394804004D27E
:1000CF00938002C293C292D292EF25E0FF0E80DBA3
:0400DF00C294D29461
:0100E30022FA
:03000000020003F8
:0C000300787FE4F6D8FD75810902004A00
:10000F0002011AE493A3F8E493A34003F68001F2EC
:10001F0008DFF48029E493A3F85407240CC8C333F2
:10002F00C4540F4420C8834004F456800146F6DFC1
:10003F00E4800B0102040810204080900164E47EEC
:10004F00019360BCA3FF543F30E509541FFEE493B6
:10005F00A360010ECF54C025E060A840B8E493A37D
:10006F00FAE493A3F8E493A3C8C582C8CAC583CAA8
:10007F00F0A3C8C582C8CAC583CADFE9DEE780BE60
:010168000096
:00000001FF
