:100818006C65645F64617461203D2030783031001C
:100828006C65645F64617461203D2030783032000B
:10063200E523640160030206C1F523F527E528647A
:1006420001707C7B007A0079287D0412074E8F1E90
:10065200751C00E51EF51D7427253CF8E6B51C0A3D
:100662007426253CF8E6651D60307B007A00792807
:100672007D0412074E8F1EE51EF52C752D00E4F544
:100682001FE51FC3953C500E7428251FF8E6FF1284
:100692000003051F80EBE4F53C22E52924FE600BF4
:1006A2000470117BFF7A08791880067BFF7A08793B
:1006B20028120088E4F53CFB7A00792812083822D7
:0B087A0012086C12085412063280FBBA
:0F000E00012700013C00013E00012500012600F2
:1008540053877F759850D2AC758920758DFA758D44
:08086400FAC2ABD2AFD28E2222
:030023000207973A
:10079700C0E0C0D075D000C00030981DC298752742
:1007A70001E53CC39414500B7428253CF8A6990521
:1007B7003C8003753C14753D00309902C299D00006
:0507C700D0D0D0E032AB
:060003008F993099FD22E7
:1007F3008B3F8A408941AB3FAA40A94112058260E1
:10080300130541E5417002054014F9120582FF12F8
:05081300000380E22259
:06088500AE071200032281
:060838008B088A09890A01
:10083E00E4FFAB08AA09A90A8F82758300E41205AA
:05084E009B0FBF14ED3B
:010853002282
:0E086C00758912758CFC758A66D2A9D28C2211
:03000B000207CC1D
:1007CC00C0E0C0D0C28CE527B4010F053DE53DD398
:1007DC00940A4006753D00752301758CFC758A667C
:0707EC00D28CD0D0D0E03226
:1003820000C1814001C0804101C0804100C1814063
:1003920001C0804100C1814000C1814001C0804153
:1003A20001C0804100C1814000C1814001C0804143
:1003B20000C1814001C0804101C0804100C1814033
:1003C20001C0804100C1814000C1814001C0804123
:1003D20000C1814001C0804101C0804100C1814013
:1003E20000C1814001C0804101C0804100C1814003
:1003F20001C0804100C1814000C1814001C08041F3
:1004020001C0804100C1814000C1814001C08041E2
:1004120000C1814001C0804101C0804100C18140D2
:1004220000C1814001C0804101C0804100C18140C2
:1004320001C0804100C1814000C1814001C08041B2
:1004420000C1814001C0804101C0804100C18140A2
:1004520001C0804100C1814000C1814001C0804192
:1004620001C0804100C1814000C1814001C0804182
:1004720000C1814001C0804101C0804100C1814072
:1004820000C0C101C30302C2C60607C705C5C40432
:10049200CC0C0DCD0FCFCE0E0ACACB0BC90908C8A2
:1004A200D81819D91BDBDA1A1EDEDF1FDD1D1CDC92
:1004B20014D4D515D71716D6D21213D311D1D01002
:1004C200F03031F133F3F23236F6F737F53534F4F2
:1004D2003CFCFD3DFF3F3EFEFA3A3BFB39F9F83862
:1004E20028E8E929EB2B2AEAEE2E2FEF2DEDEC2C52
:1004F200E42425E527E7E62622E2E323E12120E0C2
:10050200A06061A163A3A26266A6A767A56564A4B1
:100512006CACAD6DAF6F6EAEAA6A6BAB69A9A86821
:1005220078B8B979BB7B7ABABE7E7FBF7DBDBC7C11
:10053200B47475B577B7B67672B2B373B17170B081
:100542005090915193535292965657975595945471
:100552009C5C5D9D5F9F9E5E5A9A9B5B99595898E1
:10056200884849894B8B8A4A4E8E8F4F8D4D4C8CD1
:100572004484854587474686824243834181804041
:08074E008B088A09890A8D0B52
:100756007FFF7DFFAE0B150BEE6031AB08050AE59A
:100766000AAA097002050914F91205826FFB7A00BC
:100776002482F582EA3403F583E4936DFF74822BB9
:10078600F582EA3404F583E493FD80C8EFFEEDFFBD
:010796002240
:030000000206C233
:0C06C200787FE4F6D8FD7581410207093D
:10058200BB010689828A83E0225002E722BBFE0277
:09059200E32289828A83E49322AA
:10059B00F8BB010DE58229F582E5833AF583E8F096
:1005AB00225006E92582C8F622BBFE05E92582C842
:0205BB00F2222A
:10002600E517240BF8E60517227808300702780B47
:10003600E475F0011205FC0205822000EB7F2ED24A
:10004600008018EF540F2490D43440D4FF30040BB2
:10005600EF24BFB41A0050032461FFE518600215AF
:1000660018051BE51B7002051A30070D7808E475A4
:10007600F0011205FCEF0205EA0208857403D207B7
:100086008003E4C207F5178B088A09890AE4F51884
:10009600F51AF51BE51860077F2012006180F575DB
:1000A60019FFC201C200C202C203C205C206C208CB
:1000B60012002FFF700D3007057F00120072AF1B74
:1000C600AE1A22B4255FC2D5C20412002FFF24D077
:1000D600B40A00501A75F00A781830D50508B6FF2C
:1000E6000106C6A426F620D5047002D20380D924C0
:1000F600CFB41A00EF5004C2E5D204020272D20154
:1001060080C6D20080C0D20280BCD2D580BAD205C9
:1001160080B47F201200612002077401B5180040E8
:10012600F1120026FF12006102009AD208D2068060
:1001360095120026FB120026FA120026F94A4B7089
:100146000679437A037BFF20022EE518602A7E009B
:100156008E827583001205BD60060EEE651970F07D
:10016600C2D5EBC0E0EAC0E0E9C0E0EE1202B9D0C9
:10017600E0F9D0E0FAD0E0FB120582FF60AAEBC0FE
:10018600E0EAC0E0E9C0E0120061D0E02401F9D065
:10019600E03400FAD0E0FBE5190460DCD519D9801B
:1001A600877BFF7A0279B5D202809C79108002792A
:1001B60008C206C2088008D2D5790A8004790AC224
:1001C600D5E519047002F519E4FAFDFEFF120026C2
:1001D600FC7B08200113120026FD7B1030000A125A
:1001E6000026FE120026FF7B20EC3382D592D550E6
:1001F60013C3E43000069FFFE49EFEE42001039D46
:10020600FDE49CFCE4CBF8C201EC700CCFCECDCC67
:10021600E824F8F870F38017C3EF33FFEE33FEEDF2
:1002260033FDEC33FCEB33FB994002FB0FD8E9EBD3
:10023600300105F8D0E0C448B201C0E00AEC4D4EEA
:100246004F78207B0070C2EAB5190040BCC0E012AE
:1002560002BBD0F0D0E0200104C4C0E0C4B201C0AB
:10026600F012004AD0F0D5F0EB02009A12060C010B
:10027600375301B15801084C01044201B54F01BD85
:0F0286004401BD49011D4301C35501A74601A70E
:100295004501A747036350010C2D01102E01332B97
:1002A500011423013120034C2A00CC480000012B06
:1002B5003F3F3F00790AA2D5200314300509B91044
:1002C500020404B9080104A2D52006025001042045
:1002D50002689202B518005034C0E07F203003193F
:1002E5007F30A20272067205500F120312C202C2BB
:1002F50006C205C2087F30800F300503E9C0E01251
:100305000061300503D0E0F9D0E0B518CC30051711
:100315007F30B9100C1200617F583004077F788058
:1003250003B908031200613002057F2D0200617FC9
:10033500202008F87F2B2006F322920280CF286E1A
:10034500756C6C2900D2011200263001F8C20178C3
:100355001830D50108F60200CC2D5043495812003B
:10036500262403B405004001E490035E9312005275
:0D037500743A120052D2037518040201B14F
:1006CE0002087AE493A3F8E493A34003F68001F2C0
:1006DE0008DFF48029E493A3F85407240CC8C3332D
:1006EE00C4540F4420C8834004F456800146F6DFFC
:1006FE00E4800B010204081020408090000EE47E7E
:10070E00019360BCA3FF543F30E509541FFEE493F0
:10071E00A360010ECF54C025E060A840B8E493A3B7
:10072E00FAE493A3F8E493A3C8C582C8CAC583CAE2
:10073E00F0A3C8C582C8CAC583CADFE9DEE780BE9A
:01001D0000E2
:1005BD00BB010CE58229F582E5833AF583E02250F3
:1005CD0006E92582F8E622BBFE06E92582F8E2223D
:0D05DD00E58229F582E5833AF583E4932257
:1005EA00BB010689828A83F0225002F722BBFE01F0
:0205FA00F322EA
:1005FC00FAE6FB0808E6F925F0F618E6CA3AF62200
:10060C00D083D082F8E4937012740193700DA3A37D
:10061C0093F8740193F5828883E473740293686091
:06062C00EFA3A3A380DF91
:00000001FF
