:100003000000000000000000002F000000000700B7
:10001300070000147F147F1400242A7F2A12006231
:1000230064081323003649552250000005030000DD
:1000330000001C224100000041221C000014083E65
:1000430008140008083E0808000000A0600000082B
:10005300080808080000606000000020100804027F
:10006300003E5149453E0000427F4000004261513D
:100073004946002141454B31001814127F100027D7
:1000830045454539003C4A4949300001710905039A
:1000930000364949493600064949291E00003636CB
:1000A300000000005636000000081422410000142E
:1000B300141414140000412214080002015109060B
:1000C30000324959513E007C1211127C007F49498C
:1000D3004936003E41414122007F4141221C007FBD
:1000E30049494941007F09090901003E4149497ACB
:1000F300007F0808087F0000417F41000020404145
:100103003F01007F08142241007F40404040007FB0
:10011300020C027F007F0408107F003E4141413EF4
:10012300007F09090906003E4151215E007F09193C
:1001330029460046494949310001017F0101003F39
:100143004040403F001F2040201F003F4038403FB9
:10015300006314081463000708700807006151491D
:10016300454300007F41410000552A552A550000B0
:1001730041417F000004020102040040404040402E
:10018300000001020400002054545478007F4844C6
:10019300443800384444442000384444487F0038FD
:1001A3005454541800087E0901020018A4A4A47C26
:1001B300007F080404780000447D400000408084F0
:1001C3007D00007F102844000000417F4000007C38
:1001D30004180478007C0804047800384444443844
:1001E30000FC242424180018242418FC007C080490
:1001F300040800485454542000043F444020003C69
:100203004040207C001C2040201C003C4030403CEF
:10021300004428102844001CA0A0A07C004464547F
:100223004C441414141414140000000000000000C3
:100233000000000000000000000000F800000000C3
:10024300000000333000000000100C06100C060004
:10025300000000000000000040C07840C07840006B
:10026300043F04043F040400007088FC08300000CD
:10027300001820FF211E0000F008F000E018000025
:1002830000211C031E211E0000F0088870000000DE
:100293001E2123241927211010160E000000000030
:1002A3000000000000000000000000E0180402004D
:1002B300000000071820400000020418E0000000BE
:1002C3000040201807000000404080F080404000BC
:1002D3000202010F01020200000000F00000000012
:1002E3000101011F010101000000000000000000E6
:1002F30080B070000000000000000000000000005B
:1003030000010101010101010000000000000000E3
:10031300003030000000000000000000806018047E
:10032300006018060100000000E010080810E0005B
:10033300000F102020100F00001010F80000000024
:100343000020203F2020000000700808088870006B
:1003530000302824222130000030088888483000EB
:100363000018202020110E000000C02010F800000B
:1003730000070424243F240000F8088888080800A4
:100383000019212020110E0000E0108888180000B9
:10039300000F112020110E0000380808C83808008B
:1003A3000000003F0000000000708808088870000B
:1003B300001C222121221C0000E010080810E0008C
:1003C3000000312222110F00000000C0C000000015
:1003D300000000303000000000000080000000003A
:1003E3000000806000000000000080402010080032
:1003F30000010204081020004040404040404000FB
:1004030004040404040404000008102040800000D5
:100413000020100804020100007048080808F000DA
:100423000000003036010000C030C828E810E000AA
:100433000718272423140B000000C038E000000035
:10044300203C23020227382008F88888887000009F
:10045300203F202020110E00C03008080808380073
:10046300071820202010080008F808080810E000EA
:10047300203F202020100F0008F88888E80810008B
:10048300203F20202320180008F88888E80810005F
:10049300203F200003000000C03008080838000097
:1004A30007182020221E020008F808000008F80898
:1004B300203F210101213F20000808F8080800001F
:1004C3000020203F2020000000000808F808080052
:1004D300C08080807F00000008F888C028180800CA
:1004E300203F20012638200008F808000000000003
:1004F300203F20202020300008F8F800F8F80800FA
:10050300203F003F003F200008F830C00008F808F3
:10051300203F200007183F00E01008080810E00003
:100523000F10202020100F0008F808080808F0001A
:10053300203F210101010000E01008080810E0003D
:100543000F18242438504F0008F8888888887000D2
:10055300203F2000030C3020007088080808380072
:100563000038202121221C00180808F80808180068
:100573000000203F2000000008F808000008F808E9
:10058300001F202020201F000878880000C838089A
:10059300000007380E010000F80800F80008F80012
:1005A300033C0700073C03000818688080681808AC
:1005B30020302C03032C30200838C800C83808002A
:1005C3000000203F2000000010080808C838080079
:1005D3002038262120201800000000FE020202001D
:1005E3000000007F40404000000C30C000000000CD
:1005F300000000010638C00000020202FE000000F5
:10060300004040407F00000000000402020204009A
:1006130000000000000000000000000000000000D7
:1006230080808080808080800002020400000000BF
:1006330000000000000000000000808080800000B7
:100643000019242222223F2008F8008080000000A5
:10065300003F112020110E00000000808080000068
:10066300000E112020201100000000808088F80077
:10067300000E112020103F200000808080800000A9
:10068300001F222222221300008080F0888888180D
:100693000020203F20200000000080808080800018
:1006A300006B94949493600008F8008080800000AD
:1006B300203F210000203F20008098980000000088
:1006C3000020203F202000000000008098980000B8
:1006D30000C08080807F000008F8000080808000D8
:1006E300203F24022D302000000808F800000000FD
:1006F3000020203F202000008080808080808000B8
:10070300203F20003F20003F808000808080000049
:10071300203F210000203F200000808080800000D7
:10072300001F202020201F00808000808000000008
:1007330080FFA12020110E00000000808080800037
:10074300000E112020A0FF80808080008080800028
:1007530020203F2120000100000080808080800055
:100763000033242424241900008080E080800000CA
:100773000000001F20200000808000000080800017
:10078300001F202020103F20808080000080808078
:1007930000010E3008060100808000800080808008
:1007A3000F300C030C300F0000808000808080002D
:1007B3000020312E0E312000808080000080808058
:1007C30080818E7018060100008080808080800008
:1007D3000021302C2221300000000000807C020226
:1007E30000000000003F404000000000FF00000048
:1007F30000000000FF0000000002027C80000000F7
:100803000040403F00000000000601010202040412
:1008130000000000000000000000F010101010FFA6
:1008230010101010F000000000000F04040404FF77
:10083300040404040F0000004040405F5555557503
:100843005555555F404040000040200F09498979C4
:100853000909090F2040000000FE02424ACA4A4A21
:10086300CA4A4A4202FE000000FF40504C43404047
:100873004F50505C40FF00000000F888888888FFD4
:1008830088888888F800000000001F080808087F8F
:10089300888888889F80F00080828282828282E2B8
:1008A300A2928A8682808000000000000040807F40
:1008B3000000000000000000101010FF10900888D6
:1008C3008888FF88888808000444827F01808040EC
:1008D300432C1028468180000010101010D030FFE8
:1008E30030D0121C1010000010080402010000FF99
:0808F3000000010204081000DE
:10120000EF4E60157D087C07ED1DAA0470011C4A95
:0912100070F6EF1F70EA1E80E782
:0112190022B2
:10121A008F09E5097006FD7FA612113BE509B401A5
:09122A0007E4FD7FA712113B222D
:101192008F09E509700DFD7FC812113BE4FD7FA1A7
:1011A20012113BE509B4010EE4FD7FC012113BE4CC
:0711B200FD7FA012113B229A
:0C112F00F582E43583F583E493FF7D0135
:10113B008F1B8D1C12126F7F781211DD12127EE540
:10114B001C60047F408002E4FF1211DD12127EAF9F
:0A115B001B1211DD12127E02129920
:1011B9008F1AED24B0FFE4FD12113BE51A54F0C477
:1011C900540F4410FFE4FD12113BE51A540FFFE4DC
:0411D900FD02113BC7
:10123300E4FD7F8D12113BE4FD7F1412113BE4FDAD
:051243007FAF02113B2A
:10124800E4FD7F8D12113BE4FD7F1012113BE4FD9C
:051258007FAE02113B16
:1010F800E4F509E50924B0FFE4FD12113BE4FDFF26
:1011080012113BE4FD7F1012113BE4F50A7D01E466
:10111800FF12113B050AE50AC3948040F00509E572
:0611280009C3940840CD4C
:01112E00229E
:040EDA008F128D13D3
:100EDE00E4F516E515C313FFF517E4F518E515B49B
:100EEE000805751906801BE515131313541FFEE52F
:100EFE0015540760047D0180027D00EE2D8FF0A455
:100F0E00F519EB24E0F516AD13AF121211B9E4F595
:100F1E0018E518C39519504EE5188517F084E5F0BD
:100F2E00700FE51564086009AD130513AF121211A9
:100F3E00B9E515B4081075F006E516A42403F5827C
:100F4E00E5F034008013E515B4101B75F010E516AE
:100F5E00A4242BF582E5F03402F583E582251812E0
:060F6E00112F051880ABF5
:010F7400225A
:10125D007E01AC051DEC6007EE8FF0A4FE80F3AFB0
:01126D00067A
:01126E00225D
:060F75008F098D0A8B0BB1
:100F7B00E4F510F511E50DB40803751002E4F50E58
:100F8B00E50EC3950C505FC3E50C950E14FD7F0A5F
:100F9B0012125DE50B8FF08475F00A8485F00FE576
:100FAB00117025E50C14FFE50EC39F501BE50F7068
:100FBB0014E50DC3132510850EF0A42509FF850D2F
:100FCB00157B208018751101E50DC3132510850EB7
:100FDB00F0A42509FFE50F2430FB850D15AD0A1292
:060FEB000EDA050E809AEB
:010FF10022DD
:0A10AF008F098D0A8B0B8A0C890D46
:1010B900E4F50FAB0BAA0CA90D850F8275830012FD
:1010C9001165602AAF0F050F8F82758300121165B4
:1010D900FB850E15AD0AAF09120EDAE50EB4080448
:0E10E90074068004E50EC3132509F50980C5C1
:0110F70022D6
:060FF2008F098D0A8B0B34
:100FF800E50C131313541FFFE50C540760047E011E
:1010080080027E00EF2E850CF0A4F50EE4F50DE5C8
:101018000DC3950E5032E50D850CF084E5F070098E
:10102800AD0A050AAF091211B9E50CB4101AE50B9F
:10103800C43354E0241BF582E43408F583E58225A3
:081048000D12112F050D80C7E8
:01105000227D
:061051008F098D0A8B0BD4
:10105700E4F510E50C131313541FFFE50C54076058
:10106700047E0180027E00EF2EF50CE4F511E511F8
:10107700250AFDAF091211B9E4F512E512C3950B64
:10108700501CAB0DAA0EA90FAF1005108F827583E8
:1010970000121165FF7D0112113B051280DD05115C
:0710A700E511C3944040C7AE
:0110AE00221F
:100E1500E4FD7FAE12113BE4FDFF12113BE4FD7FC3
:100E25001012113BE4FD7F4012113BE4FD7F81125E
:100E3500113BE4FD7FCF12113BE4FD7FA112113B75
:100E4500E4FD7FC812113BE4FD7FA612113BE4FDD2
:100E55007FA812113BE4FD7F3F12113BE4FD7FD3D8
:100E650012113BE4FDFF12113BE4FD7FD512113B4E
:100E7500E4FD7F8012113BE4FD7FD912113BE4FDB7
:100E85007FF112113BE4FD7FDA12113BE4FD7F1285
:100E950012113BE4FD7FDB12113BE4FD7F40121193
:100EA5003BE4FD7F2012113BE4FD7F0212113BE480
:100EB500FD7F8D12113BE4FD7F1412113BE4FD7F94
:100EC500A412113BE4FD7FA612113B1210F8E4FDBC
:050ED5007FAF02113B9C
:0812A3007F01AE071FEE70FA97
:0112AB002220
:0F126F00D291D2901212A3C2911212A3C2902256
:0A129900C291D2901212A3D291224A
:0F127E00D2911212A3D2901212A3C2900212A305
:0211DD00AD075C
:1011DF00E4FCC290ED30E704D2918002C29112126A
:1011EF00A3D2901212A3C290ED25E0FD0CBC08E231
:0111FF0022CD
:1008FB005A484F4E474A494E475955414E003230A0
:10090B0031342F30352F30310041534349493A00B0
:10091B00434F44453A000003050911FF118905C3F4
:10092B0000E000F000F8000000000000004428FF89
:10093B0011AA4400000000000000000000000000AD
:10094B00000000000000000000000000000000009C
:10095B00000000000000000000000000000000008C
:10096B00000000000000000000000000000000007C
:10097B0083013844829292740183000000000000CE
:10098B00007C44FF017D7D7D017D7D7D7D017D7D35
:10099B007D7D7D01FF0000000000000100010001D2
:1009AB000001000100010000000000000000000138
:1009BB00010000000000000000000000000000002B
:1009CB00000000000000000000000000000000001C
:1009DB00000000000000000000000000000000000C
:1009EB0000000000000000000000000000000000FC
:1009FB0001010000000000000101000000000000E8
:100A0B0000000001010101010101010101010101CE
:100A1B0001010101010000000000000000000000C6
:100A2B0000000000000000000000000000000000BB
:100A3B0000003F3F0303F31311111111111101F1C9
:100A4B00116181010101816111F10101010141413B
:100A5B00F10101010101C1211111111121C101018B
:100A6B0001014141F10101010101010101010111EB
:100A7B0011111111D33303033F3F0000000000009D
:100A8B00000000000000000000000000000000005B
:100A9B00000000000000000000000000000000004B
:100AAB00000000000000000000000000000000003B
:100ABB000000E0E000007F01010101010100007F67
:100ACB000000010618060100007F000000004040F6
:100ADB007F40400000001F2040404040201F00008E
:100AEB00000040407F40400000000060000000001C
:100AFB0040300C0300000000E0E0000000000000AC
:100B0B0000000000000000000000000000000000DA
:100B1B0000000000000000000000000000000000CA
:100B2B0000000000000000000000000000000000BA
:100B3B0000000707060606060404048444444484A4
:100B4B000404844444448404040484C4040404045A
:100B5B0084444444840404040404844444448404CA
:100B6B0004040404844444448404048444444484BA
:100B7B000404040406060606070700000000000034
:100B8B00000000000000000000000000000000005A
:100B9B00000000000000000000000000000000004A
:100BAB00000000000000000000000000000000003A
:100BBB0000000000000000000000001018141211CB
:100BCB0000000F1010100F000000101F100000008D
:100BDB00081012120D00001800000D1212120D0059
:100BEB000018000010181412110000101814121124
:100BFB0000000000000000000000000000000000EA
:100C0B0000000000000000000000000000000000D9
:100C1B0000000000000000000000000000000000C9
:100C2B0000000000000000000000000000000000B9
:100C3B0000000000000000000000000000000000A9
:100C4B000000000000000000000000000000000099
:100C5B000000808080808080808000000000000089
:100C6B000000000000000000000000000000000079
:100C7B000000000000000000000000000000000069
:100C8B000000000000000000000000000000000059
:100C9B00000000000000007F030C300C037F0000FD
:100CAB003854545800007C04047800003C40407CCD
:100CBB000000000000000000000000000000000029
:100CCB000000000000000000000000000000000019
:100CDB000000FFAAAAAA280800FF000000000000DD
:100CEB0000000000000000000000000000000000F9
:100CFB000000000000000000000000000000007F6A
:100D0B00030C300C037F0000264949493200007F59
:060D1B00020408107F0035
:100D2100750820120E15E4FF12121AE4FF12119237
:100D3100750C40750DFF750E09750F217B80E4FD63
:100D4100FF1210517FF47E011212001210F8750C7F
:100D510010E4FBFDFF120FF2750C107B01E4FD7F27
:100D610012120FF2750C107B02E4FD7F24120FF2B8
:100D7100750C107B03E4FD7F36120FF2750C107BAE
:100D810004E4FD7F48120FF2750C107B05E4FD7F32
:100D91005A120FF2750C107B06E4FD7F6C120FF2F4
:100DA1007BFF7A0879FB750E107D027F081210AF68
:100DB1007BFF7A097909750E107D047F141210AF3B
:100DC1007BFF7A097914750E107D06E4FF1210AFCE
:100DD1007BFF7A09791B750E107D067F3F1210AFDC
:100DE100751510AB087D067F30120EDA0508E5088F
:100DF100D3947E4003750820750C03750D10AB0864
:100E01007D067F67120F757FF47E011212001210AA
:040E1100F8020D31A5
:0300000002128D5C
:0C128D00787FE4F6D8FD75811C020D216D
:10116500BB010CE58229F582E5833AF583E022503F
:1011750006E92582F8E622BBFE06E92582F8E22289
:0D118500E58229F582E5833AF583E49322A3
:00000001FF
